{
  "contractName": "Custodier",
  "abi": [
    {
      "inputs": [
        {
          "internalType": "string",
          "name": "_name",
          "type": "string"
        },
        {
          "internalType": "uint256",
          "name": "_contribAmount",
          "type": "uint256"
        },
        {
          "internalType": "address",
          "name": "_creator",
          "type": "address"
        },
        {
          "internalType": "uint256",
          "name": "_millisecondsUntilExpiration",
          "type": "uint256"
        }
      ],
      "payable": false,
      "stateMutability": "nonpayable",
      "type": "constructor"
    },
    {
      "payable": true,
      "stateMutability": "payable",
      "type": "fallback"
    },
    {
      "constant": true,
      "inputs": [
        {
          "internalType": "address",
          "name": "",
          "type": "address"
        }
      ],
      "name": "balances",
      "outputs": [
        {
          "internalType": "uint256",
          "name": "",
          "type": "uint256"
        }
      ],
      "payable": false,
      "stateMutability": "view",
      "type": "function"
    },
    {
      "constant": true,
      "inputs": [],
      "name": "contribAmount",
      "outputs": [
        {
          "internalType": "uint256",
          "name": "",
          "type": "uint256"
        }
      ],
      "payable": false,
      "stateMutability": "view",
      "type": "function"
    },
    {
      "constant": true,
      "inputs": [],
      "name": "contribCount",
      "outputs": [
        {
          "internalType": "uint256",
          "name": "",
          "type": "uint256"
        }
      ],
      "payable": false,
      "stateMutability": "view",
      "type": "function"
    },
    {
      "constant": true,
      "inputs": [
        {
          "internalType": "uint256",
          "name": "",
          "type": "uint256"
        }
      ],
      "name": "contributors",
      "outputs": [
        {
          "internalType": "address payable",
          "name": "",
          "type": "address"
        }
      ],
      "payable": false,
      "stateMutability": "view",
      "type": "function"
    },
    {
      "constant": true,
      "inputs": [],
      "name": "creationTimestamp",
      "outputs": [
        {
          "internalType": "uint256",
          "name": "",
          "type": "uint256"
        }
      ],
      "payable": false,
      "stateMutability": "view",
      "type": "function"
    },
    {
      "constant": true,
      "inputs": [],
      "name": "creator",
      "outputs": [
        {
          "internalType": "address",
          "name": "",
          "type": "address"
        }
      ],
      "payable": false,
      "stateMutability": "view",
      "type": "function"
    },
    {
      "constant": true,
      "inputs": [],
      "name": "millisecondsUntilExpiration",
      "outputs": [
        {
          "internalType": "uint256",
          "name": "",
          "type": "uint256"
        }
      ],
      "payable": false,
      "stateMutability": "view",
      "type": "function"
    },
    {
      "constant": true,
      "inputs": [],
      "name": "name",
      "outputs": [
        {
          "internalType": "string",
          "name": "",
          "type": "string"
        }
      ],
      "payable": false,
      "stateMutability": "view",
      "type": "function"
    },
    {
      "constant": true,
      "inputs": [],
      "name": "paidOut",
      "outputs": [
        {
          "internalType": "bool",
          "name": "",
          "type": "bool"
        }
      ],
      "payable": false,
      "stateMutability": "view",
      "type": "function"
    },
    {
      "constant": false,
      "inputs": [],
      "name": "contribute",
      "outputs": [],
      "payable": true,
      "stateMutability": "payable",
      "type": "function"
    },
    {
      "constant": false,
      "inputs": [],
      "name": "payOut",
      "outputs": [],
      "payable": false,
      "stateMutability": "nonpayable",
      "type": "function"
    },
    {
      "constant": true,
      "inputs": [
        {
          "internalType": "address",
          "name": "_addr",
          "type": "address"
        }
      ],
      "name": "contributed",
      "outputs": [
        {
          "internalType": "bool",
          "name": "",
          "type": "bool"
        }
      ],
      "payable": false,
      "stateMutability": "view",
      "type": "function"
    },
    {
      "constant": false,
      "inputs": [],
      "name": "claimTimeout",
      "outputs": [],
      "payable": false,
      "stateMutability": "nonpayable",
      "type": "function"
    }
  ],
  "bytecode": "0x608060405260006008556000600960006101000a81548160ff02191690831515021790555034801561003057600080fd5b50604051610beb380380610beb8339818101604052608081101561005357600080fd5b810190808051604051939291908464010000000082111561007357600080fd5b8382019150602082018581111561008957600080fd5b82518660018202830111640100000000821117156100a657600080fd5b8083526020830192505050908051906020019080838360005b838110156100da5780820151818401526020810190506100bf565b50505050905090810190601f1680156101075780820380516001836020036101000a031916815260200191505b5060405260200180519060200190929190805190602001909291908051906020019092919050505083600190805190602001906101459291906101ba565b50816000806101000a81548173ffffffffffffffffffffffffffffffffffffffff021916908373ffffffffffffffffffffffffffffffffffffffff1602179055508260028190555042600381905550806005819055506103e881816101a657fe5b04600354016004819055505050505061025f565b828054600181600116156101000203166002900490600052602060002090601f016020900481019282601f106101fb57805160ff1916838001178555610229565b82800160010185558215610229579182015b8281111561022857825182559160200191906001019061020d565b5b509050610236919061023a565b5090565b61025c91905b80821115610258576000816000905550600101610240565b5090565b90565b61097d8061026e6000396000f3fe6080604052600436106100c25760003560e01c8063633341101161007f578063b331108611610059578063b331108614610390578063c2052403146103bb578063d7bb99ba146103d2578063fa345337146103dc576100c2565b806363334110146102d15780636eeb0e07146102fc578063995c5e9d14610327576100c2565b806302d05d3f146100c457806306fdde031461011b5780630e1da6c3146101ab57806327e235e3146101c25780633cb5d100146102275780635c76ca2d146102a2575b005b3480156100d057600080fd5b506100d9610407565b604051808273ffffffffffffffffffffffffffffffffffffffff1673ffffffffffffffffffffffffffffffffffffffff16815260200191505060405180910390f35b34801561012757600080fd5b5061013061042c565b6040518080602001828103825283818151815260200191508051906020019080838360005b83811015610170578082015181840152602081019050610155565b50505050905090810190601f16801561019d5780820380516001836020036101000a031916815260200191505b509250505060405180910390f35b3480156101b757600080fd5b506101c06104ca565b005b3480156101ce57600080fd5b50610211600480360360208110156101e557600080fd5b81019080803573ffffffffffffffffffffffffffffffffffffffff169060200190929190505050610627565b6040518082815260200191505060405180910390f35b34801561023357600080fd5b506102606004803603602081101561024a57600080fd5b810190808035906020019092919050505061063f565b604051808273ffffffffffffffffffffffffffffffffffffffff1673ffffffffffffffffffffffffffffffffffffffff16815260200191505060405180910390f35b3480156102ae57600080fd5b506102b761067b565b604051808215151515815260200191505060405180910390f35b3480156102dd57600080fd5b506102e661068e565b6040518082815260200191505060405180910390f35b34801561030857600080fd5b50610311610694565b6040518082815260200191505060405180910390f35b34801561033357600080fd5b506103766004803603602081101561034a57600080fd5b81019080803573ffffffffffffffffffffffffffffffffffffffff16906020019092919050505061069a565b604051808215151515815260200191505060405180910390f35b34801561039c57600080fd5b506103a561073c565b6040518082815260200191505060405180910390f35b3480156103c757600080fd5b506103d0610742565b005b6103da610863565b005b3480156103e857600080fd5b506103f1610942565b6040518082815260200191505060405180910390f35b6000809054906101000a900473ffffffffffffffffffffffffffffffffffffffff1681565b60018054600181600116156101000203166002900480601f0160208091040260200160405190810160405280929190818152602001828054600181600116156101000203166002900480156104c25780601f10610497576101008083540402835291602001916104c2565b820191906000526020600020905b8154815290600101906020018083116104a557829003601f168201915b505050505081565b600454421180156104e057506104df3361069a565b5b8061053757506000809054906101000a900473ffffffffffffffffffffffffffffffffffffffff1673ffffffffffffffffffffffffffffffffffffffff163373ffffffffffffffffffffffffffffffffffffffff16145b61054057600080fd5b6000600680549050478161055057fe5b04905060008090505b6006805490508110156105f1576006818154811061057357fe5b9060005260206000200160009054906101000a900473ffffffffffffffffffffffffffffffffffffffff1673ffffffffffffffffffffffffffffffffffffffff166108fc839081150290604051600060405180830381858888f193505050501580156105e3573d6000803e3d6000fd5b508080600101915050610559565b506001600960006101000a81548160ff021916908315150217905550600073ffffffffffffffffffffffffffffffffffffffff16ff5b60076020528060005260406000206000915090505481565b6006818154811061064c57fe5b906000526020600020016000915054906101000a900473ffffffffffffffffffffffffffffffffffffffff1681565b600960009054906101000a900460ff1681565b60085481565b60055481565b600080600090505b600680549050811015610731578273ffffffffffffffffffffffffffffffffffffffff16600682815481106106d357fe5b9060005260206000200160009054906101000a900473ffffffffffffffffffffffffffffffffffffffff1673ffffffffffffffffffffffffffffffffffffffff161415610724576001915050610737565b80806001019150506106a2565b50600090505b919050565b60035481565b6000809054906101000a900473ffffffffffffffffffffffffffffffffffffffff1673ffffffffffffffffffffffffffffffffffffffff163373ffffffffffffffffffffffffffffffffffffffff161461079b57600080fd5b6000600247816107a757fe5b04905060008090505b600281101561084457600681815481106107c657fe5b9060005260206000200160009054906101000a900473ffffffffffffffffffffffffffffffffffffffff1673ffffffffffffffffffffffffffffffffffffffff166108fc839081150290604051600060405180830381858888f19350505050158015610836573d6000803e3d6000fd5b5080806001019150506107b0565b506001600960006101000a81548160ff02191690831515021790555050565b61086c3361069a565b1561087657600080fd5b600254341461088457600080fd5b60086000815480929190600101919050555060063390806001815401808255809150509060018203906000526020600020016000909192909190916101000a81548173ffffffffffffffffffffffffffffffffffffffff021916908373ffffffffffffffffffffffffffffffffffffffff1602179055505034600760003373ffffffffffffffffffffffffffffffffffffffff1673ffffffffffffffffffffffffffffffffffffffff16815260200190815260200160002081905550565b6002548156fea265627a7a72315820015949fe7345194cf6f0199652e09eefbd611aca97e022b44de564abf85e45be64736f6c63430005100032",
  "source": "pragma solidity ^0.5.0;\r\n// this contract represents an instance of a custodier\r\n// Will be created by CustodierFactory\r\n\r\ncontract Custodier {\r\n    address public creator;\r\n    string public name;\r\n    uint public contribAmount;\r\n    uint public creationTimestamp;\r\n    uint private expirationDate;\r\n    uint public millisecondsUntilExpiration;\r\n    address payable[] public contributors;\r\n    mapping(address => uint) public balances;\r\n    uint public contribCount = 0; // number of contributors\r\n    bool public paidOut  = false; // use to determine whether to show custodier on frontend\r\n\r\n    constructor(string memory _name, uint _contribAmount, address _creator, uint _millisecondsUntilExpiration) public {\r\n        name = _name;\r\n        creator = _creator;\r\n        contribAmount = _contribAmount; // the amount agreed to contribute ex. \"everyone contribute .001 eth\"\r\n        creationTimestamp = block.timestamp; // block.timestamp returns seconds\r\n        millisecondsUntilExpiration = _millisecondsUntilExpiration;\r\n        expirationDate = creationTimestamp + (_millisecondsUntilExpiration/1000);\r\n    }\r\n\r\n    function contribute() public payable {\r\n        require(!contributed(msg.sender)); // require they haven't already contributed\r\n        require(msg.value == contribAmount);\r\n\r\n        contribCount++;\r\n        contributors.push(msg.sender);\r\n        balances[msg.sender] = msg.value;  // add sender to balances (might not need)\r\n    }\r\n\r\n    // payout() will have to be adjusted a lot\r\n    // will need to receive placements(array of addresses where index = rank?)\r\n    // loop through ranked addresses and send ether based on that\r\n    // for now it's just paying out based on order contributed\r\n    function payOut() public {\r\n        require(msg.sender == creator);// \"payout\" button is also not shown to non-creators\r\n        \r\n        // this hard coded loop fails if there is only one contributor.\r\n        // leaving it because this whole method will need to be reworked anyway\r\n        uint payout = address(this).balance / 2;\r\n        for (uint i = 0; i < 2; i++) { // payout to first 2 for now\r\n            contributors[i].transfer(payout);\r\n        }\r\n\r\n        paidOut = true;\r\n    }\r\n\r\n    function contributed(address _addr) public view returns(bool) {\r\n        for (uint i = 0; i < contributors.length; i++) {\r\n            if(contributors[i] == _addr) {\r\n                return true; // address has already contributed\r\n            } \r\n        }\r\n        return false;\r\n    }\r\n    \r\n    // used as a fallback for contributors in case the creator doesn't payout or loses wallet\r\n    // Creator will give an amount of days to represent the length of the custodier \r\n    // If time runs out, any contributor can request a timeout that refunds all contributors\r\n    function claimTimeout() public {\r\n        require((block.timestamp > expirationDate && contributed(msg.sender)) || msg.sender == creator);\r\n        uint payout = address(this).balance / contributors.length;\r\n        for (uint i = 0; i < contributors.length; i++) { // payout to first 2 for now\r\n            contributors[i].transfer(payout);\r\n        }\r\n        paidOut = true;\r\n        selfdestruct(address(0x0)); // delete the contract\r\n    }\r\n\r\n\r\n    // function receiveScores(uint[] _scores) {\r\n        //TODO: implement this function to receive randomly generated scores\r\n        //      idea is that, to test payouts, we need scores associated with addresses\r\n        //      that can be paid out based on score.\r\n        //      Scores to come from front end once the time period is over\r\n    // }\r\n\r\n   \r\n    \r\n    function () external payable {} // fallback that is probably dangerous \r\n}",
  "sourcePath": "C:\\Users\\dmidy\\Solidity\\Custodial\\custodial\\solidity\\contracts\\Custodier.sol",
  "compiler": {
    "name": "solc",
    "version": "0.5.16+commit.9c3226ce.Emscripten.clang"
  },
  "schemaVersion": "3.4.3",
  "updatedAt": "2021-09-29T02:54:00.569Z",
  "networkType": "ethereum",
  "devdoc": {
    "methods": {}
  },
  "userdoc": {
    "methods": {}
  }
}